{
  "contractName": "Voting",
  "abi": [
    {
      "inputs": [
        {
          "internalType": "string[]",
          "name": "_candidateNames",
          "type": "string[]"
        },
        {
          "internalType": "string[]",
          "name": "_partyNames",
          "type": "string[]"
        },
        {
          "internalType": "string[]",
          "name": "_cities",
          "type": "string[]"
        }
      ],
      "stateMutability": "nonpayable",
      "type": "constructor"
    },
    {
      "anonymous": false,
      "inputs": [
        {
          "indexed": true,
          "internalType": "address",
          "name": "voter",
          "type": "address"
        },
        {
          "indexed": false,
          "internalType": "uint256[]",
          "name": "votePreference",
          "type": "uint256[]"
        }
      ],
      "name": "VoteCast",
      "type": "event"
    },
    {
      "anonymous": false,
      "inputs": [
        {
          "indexed": true,
          "internalType": "address",
          "name": "voter",
          "type": "address"
        },
        {
          "indexed": false,
          "internalType": "uint256[]",
          "name": "votePreference",
          "type": "uint256[]"
        }
      ],
      "name": "VoteRevealed",
      "type": "event"
    },
    {
      "anonymous": false,
      "inputs": [
        {
          "indexed": false,
          "internalType": "string",
          "name": "winner",
          "type": "string"
        }
      ],
      "name": "WinnerDetermined",
      "type": "event"
    },
    {
      "inputs": [
        {
          "internalType": "uint256",
          "name": "",
          "type": "uint256"
        }
      ],
      "name": "candidates",
      "outputs": [
        {
          "internalType": "string",
          "name": "name",
          "type": "string"
        },
        {
          "internalType": "string",
          "name": "partyName",
          "type": "string"
        },
        {
          "internalType": "string",
          "name": "city",
          "type": "string"
        },
        {
          "internalType": "uint256",
          "name": "voteCount",
          "type": "uint256"
        }
      ],
      "stateMutability": "view",
      "type": "function"
    },
    {
      "inputs": [],
      "name": "registerBy",
      "outputs": [
        {
          "internalType": "uint256",
          "name": "",
          "type": "uint256"
        }
      ],
      "stateMutability": "view",
      "type": "function"
    },
    {
      "inputs": [],
      "name": "revealVoteBy",
      "outputs": [
        {
          "internalType": "uint256",
          "name": "",
          "type": "uint256"
        }
      ],
      "stateMutability": "view",
      "type": "function"
    },
    {
      "inputs": [],
      "name": "voteBy",
      "outputs": [
        {
          "internalType": "uint256",
          "name": "",
          "type": "uint256"
        }
      ],
      "stateMutability": "view",
      "type": "function"
    },
    {
      "inputs": [
        {
          "internalType": "address",
          "name": "",
          "type": "address"
        }
      ],
      "name": "voters",
      "outputs": [
        {
          "internalType": "bool",
          "name": "isRegistered",
          "type": "bool"
        },
        {
          "internalType": "bool",
          "name": "hasVoted",
          "type": "bool"
        },
        {
          "internalType": "bool",
          "name": "hasPaidTax",
          "type": "bool"
        }
      ],
      "stateMutability": "view",
      "type": "function"
    },
    {
      "inputs": [],
      "name": "votingTax",
      "outputs": [
        {
          "internalType": "uint256",
          "name": "",
          "type": "uint256"
        }
      ],
      "stateMutability": "view",
      "type": "function"
    },
    {
      "inputs": [],
      "name": "winnerCandidate",
      "outputs": [
        {
          "internalType": "string",
          "name": "",
          "type": "string"
        }
      ],
      "stateMutability": "view",
      "type": "function"
    },
    {
      "inputs": [
        {
          "internalType": "uint256",
          "name": "_timeInMinutes",
          "type": "uint256"
        }
      ],
      "name": "setRegisterBy",
      "outputs": [],
      "stateMutability": "nonpayable",
      "type": "function"
    },
    {
      "inputs": [
        {
          "internalType": "uint256",
          "name": "_timeInMinutes",
          "type": "uint256"
        }
      ],
      "name": "setVoteBy",
      "outputs": [],
      "stateMutability": "nonpayable",
      "type": "function"
    },
    {
      "inputs": [
        {
          "internalType": "uint256",
          "name": "_timeInMinutes",
          "type": "uint256"
        }
      ],
      "name": "setRevealVoteBy",
      "outputs": [],
      "stateMutability": "nonpayable",
      "type": "function"
    },
    {
      "inputs": [
        {
          "internalType": "address",
          "name": "_voter",
          "type": "address"
        }
      ],
      "name": "register_Voter",
      "outputs": [],
      "stateMutability": "nonpayable",
      "type": "function"
    },
    {
      "inputs": [
        {
          "internalType": "uint256",
          "name": "_amount",
          "type": "uint256"
        }
      ],
      "name": "setVotingTax",
      "outputs": [],
      "stateMutability": "nonpayable",
      "type": "function"
    },
    {
      "inputs": [
        {
          "internalType": "string",
          "name": "_name",
          "type": "string"
        },
        {
          "internalType": "string",
          "name": "_partyName",
          "type": "string"
        },
        {
          "internalType": "string",
          "name": "_city",
          "type": "string"
        }
      ],
      "name": "register_candidate",
      "outputs": [],
      "stateMutability": "nonpayable",
      "type": "function"
    },
    {
      "inputs": [
        {
          "internalType": "bytes32",
          "name": "_blindedVote",
          "type": "bytes32"
        }
      ],
      "name": "blindedVote",
      "outputs": [],
      "stateMutability": "payable",
      "type": "function"
    },
    {
      "inputs": [
        {
          "internalType": "uint256[]",
          "name": "_votePreference",
          "type": "uint256[]"
        }
      ],
      "name": "castVote",
      "outputs": [],
      "stateMutability": "nonpayable",
      "type": "function"
    },
    {
      "inputs": [
        {
          "internalType": "uint256[]",
          "name": "_votePreference",
          "type": "uint256[]"
        }
      ],
      "name": "unblindVote",
      "outputs": [],
      "stateMutability": "nonpayable",
      "type": "function"
    },
    {
      "inputs": [],
      "name": "countVotes",
      "outputs": [],
      "stateMutability": "nonpayable",
      "type": "function"
    },
    {
      "inputs": [],
      "name": "winner",
      "outputs": [
        {
          "internalType": "string",
          "name": "",
          "type": "string"
        }
      ],
      "stateMutability": "view",
      "type": "function"
    }
  ],
  "bytecode": "0x608060405234801562000010575f80fd5b506040516200384a3803806200384a833981810160405281019062000036919062000465565b8151835114801562000049575080518351145b6200008b576040517f08c379a0000000000000000000000000000000000000000000000000000000008152600401620000829062000579565b60405180910390fd5b5f5b83518110156200019f5760016040518060800160405280868481518110620000ba57620000b962000599565b5b60200260200101518152602001858481518110620000dd57620000dc62000599565b5b602002602001015181526020018484815181106200010057620000ff62000599565b5b602002602001015181526020015f815250908060018154018082558091505060019003905f5260205f2090600402015f909190919091505f820151815f0190816200014c9190620007fd565b506020820151816001019081620001649190620007fd565b5060408201518160020190816200017c9190620007fd565b50606082015181600301555050808062000196906200090e565b9150506200008d565b50335f806101000a81548173ffffffffffffffffffffffffffffffffffffffff021916908373ffffffffffffffffffffffffffffffffffffffff1602179055505050506200095a565b5f604051905090565b5f80fd5b5f80fd5b5f80fd5b5f601f19601f8301169050919050565b7f4e487b71000000000000000000000000000000000000000000000000000000005f52604160045260245ffd5b6200024582620001fd565b810181811067ffffffffffffffff821117156200026757620002666200020d565b5b80604052505050565b5f6200027b620001e8565b90506200028982826200023a565b919050565b5f67ffffffffffffffff821115620002ab57620002aa6200020d565b5b602082029050602081019050919050565b5f80fd5b5f80fd5b5f67ffffffffffffffff821115620002e157620002e06200020d565b5b620002ec82620001fd565b9050602081019050919050565b5f5b8381101562000318578082015181840152602081019050620002fb565b5f8484015250505050565b5f620003396200033384620002c4565b62000270565b905082815260208101848484011115620003585762000357620002c0565b5b62000365848285620002f9565b509392505050565b5f82601f830112620003845762000383620001f9565b5b81516200039684826020860162000323565b91505092915050565b5f620003b5620003af846200028e565b62000270565b90508083825260208201905060208402830185811115620003db57620003da620002bc565b5b835b818110156200042957805167ffffffffffffffff811115620004045762000403620001f9565b5b8086016200041389826200036d565b85526020850194505050602081019050620003dd565b5050509392505050565b5f82601f8301126200044a5762000449620001f9565b5b81516200045c8482602086016200039f565b91505092915050565b5f805f606084860312156200047f576200047e620001f1565b5b5f84015167ffffffffffffffff8111156200049f576200049e620001f5565b5b620004ad8682870162000433565b935050602084015167ffffffffffffffff811115620004d157620004d0620001f5565b5b620004df8682870162000433565b925050604084015167ffffffffffffffff811115620005035762000502620001f5565b5b620005118682870162000433565b9150509250925092565b5f82825260208201905092915050565b7f496e707574206c656e6774687320646f206e6f74206d617463680000000000005f82015250565b5f62000561601a836200051b565b91506200056e826200052b565b602082019050919050565b5f6020820190508181035f830152620005928162000553565b9050919050565b7f4e487b71000000000000000000000000000000000000000000000000000000005f52603260045260245ffd5b5f81519050919050565b7f4e487b71000000000000000000000000000000000000000000000000000000005f52602260045260245ffd5b5f60028204905060018216806200061557607f821691505b6020821081036200062b576200062a620005d0565b5b50919050565b5f819050815f5260205f209050919050565b5f6020601f8301049050919050565b5f82821b905092915050565b5f600883026200068f7fffffffffffffffffffffffffffffffffffffffffffffffffffffffffffffffff8262000652565b6200069b868362000652565b95508019841693508086168417925050509392505050565b5f819050919050565b5f819050919050565b5f620006e5620006df620006d984620006b3565b620006bc565b620006b3565b9050919050565b5f819050919050565b6200070083620006c5565b620007186200070f82620006ec565b8484546200065e565b825550505050565b5f90565b6200072e62000720565b6200073b818484620006f5565b505050565b5b818110156200076257620007565f8262000724565b60018101905062000741565b5050565b601f821115620007b1576200077b8162000631565b620007868462000643565b8101602085101562000796578190505b620007ae620007a58562000643565b83018262000740565b50505b505050565b5f82821c905092915050565b5f620007d35f1984600802620007b6565b1980831691505092915050565b5f620007ed8383620007c2565b9150826002028217905092915050565b6200080882620005c6565b67ffffffffffffffff8111156200082457620008236200020d565b5b620008308254620005fd565b6200083d82828562000766565b5f60209050601f83116001811462000873575f84156200085e578287015190505b6200086a8582620007e0565b865550620008d9565b601f198416620008838662000631565b5f5b82811015620008ac5784890151825560018201915060208501945060208101905062000885565b86831015620008cc5784890151620008c8601f891682620007c2565b8355505b6001600288020188555050505b505050505050565b7f4e487b71000000000000000000000000000000000000000000000000000000005f52601160045260245ffd5b5f6200091a82620006b3565b91507fffffffffffffffffffffffffffffffffffffffffffffffffffffffffffffffff82036200094f576200094e620008e1565b5b600182019050919050565b612ee280620009685f395ff3fe608060405260043610610108575f3560e01c80638e0ebf2811610094578063bd816b2d11610063578063bd816b2d14610329578063c1241d8414610351578063dfbf53ae1461037b578063ead92415146103a5578063f28fd172146103cf57610108565b80638e0ebf2814610283578063a15148d1146102ab578063a3ec138d146102d5578063b647990a1461031357610108565b80633477ee2e116100db5780633477ee2e146101a2578063359c4aad146101e1578063364b706b146102095780637753fc37146102315780638d84d2aa1461025957610108565b806306ea70a01461010c5780630f31f6a7146101285780631410929014610152578063226173341461017a575b5f80fd5b610126600480360381019061012191906119e1565b6103f7565b005b348015610133575f80fd5b5061013c61067e565b6040516101499190611a24565b60405180910390f35b34801561015d575f80fd5b5061017860048036038101906101739190611a67565b610684565b005b348015610185575f80fd5b506101a0600480360381019061019b9190611be2565b610732565b005b3480156101ad575f80fd5b506101c860048036038101906101c39190611a67565b610aac565b6040516101d89493929190611ca3565b60405180910390f35b3480156101ec575f80fd5b5061020760048036038101906102029190611a67565b610c79565b005b348015610214575f80fd5b5061022f600480360381019061022a9190611a67565b610d27565b005b34801561023c575f80fd5b5061025760048036038101906102529190611dab565b610e03565b005b348015610264575f80fd5b5061026d610f2a565b60405161027a9190611a24565b60405180910390f35b34801561028e575f80fd5b506102a960048036038101906102a49190611ea9565b610f30565b005b3480156102b6575f80fd5b506102bf61105c565b6040516102cc9190611ed4565b60405180910390f35b3480156102e0575f80fd5b506102fb60048036038101906102f69190611ea9565b6110e8565b60405161030a93929190611f0e565b60405180910390f35b34801561031e575f80fd5b50610327611132565b005b348015610334575f80fd5b5061034f600480360381019061034a9190611be2565b6112ea565b005b34801561035c575f80fd5b506103656117a9565b6040516103729190611a24565b60405180910390f35b348015610386575f80fd5b5061038f6117af565b60405161039c9190611ed4565b60405180910390f35b3480156103b0575f80fd5b506103b9611883565b6040516103c69190611a24565b60405180910390f35b3480156103da575f80fd5b506103f560048036038101906103f09190611a67565b611889565b005b60025f3373ffffffffffffffffffffffffffffffffffffffff1673ffffffffffffffffffffffffffffffffffffffff1681526020019081526020015f205f015f9054906101000a900460ff16610482576040517f08c379a000000000000000000000000000000000000000000000000000000000815260040161047990611f8d565b60405180910390fd5b60045442116104c6576040517f08c379a00000000000000000000000000000000000000000000000000000000081526004016104bd90611ff5565b60405180910390fd5b60055442111561050b576040517f08c379a00000000000000000000000000000000000000000000000000000000081526004016105029061205d565b60405180910390fd5b600754341015610550576040517f08c379a0000000000000000000000000000000000000000000000000000000008152600401610547906120c5565b60405180910390fd5b6007543411156105ac573373ffffffffffffffffffffffffffffffffffffffff166108fc600754346105829190612110565b90811502906040515f60405180830381858888f193505050501580156105aa573d5f803e3d5ffd5b505b8060035f3373ffffffffffffffffffffffffffffffffffffffff1673ffffffffffffffffffffffffffffffffffffffff1681526020019081526020015f20819055503373ffffffffffffffffffffffffffffffffffffffff167f211a7b776c31f6516a326e84718f2718d87d0155a80839c84507ea2de6fd519160025f3373ffffffffffffffffffffffffffffffffffffffff1673ffffffffffffffffffffffffffffffffffffffff1681526020019081526020015f206001016040516106739190612243565b60405180910390a250565b60045481565b5f8054906101000a900473ffffffffffffffffffffffffffffffffffffffff1673ffffffffffffffffffffffffffffffffffffffff163373ffffffffffffffffffffffffffffffffffffffff1614610711576040517f08c379a0000000000000000000000000000000000000000000000000000000008152600401610708906122d3565b60405180910390fd5b603c8161071e91906122f1565b426107299190612332565b60058190555050565b60025f3373ffffffffffffffffffffffffffffffffffffffff1673ffffffffffffffffffffffffffffffffffffffff1681526020019081526020015f205f015f9054906101000a900460ff166107bd576040517f08c379a00000000000000000000000000000000000000000000000000000000081526004016107b490611f8d565b60405180910390fd5b6004544211610801576040517f08c379a00000000000000000000000000000000000000000000000000000000081526004016107f890611ff5565b60405180910390fd5b600554421115610846576040517f08c379a000000000000000000000000000000000000000000000000000000000815260040161083d9061205d565b60405180910390fd5b60018054905081511461088e576040517f08c379a0000000000000000000000000000000000000000000000000000000008152600401610885906123d5565b60405180910390fd5b5f60018054905067ffffffffffffffff8111156108ae576108ad611aa6565b5b6040519080825280602002602001820160405280156108dc5781602001602082028036833780820191505090505b5090505f5b8251811015610a52575f8382815181106108fe576108fd6123f3565b5b60200260200101511180156109325750600180549050838281518110610927576109266123f3565b5b602002602001015111155b610971576040517f08c379a00000000000000000000000000000000000000000000000000000000081526004016109689061246a565b60405180910390fd5b816001848381518110610987576109866123f3565b5b60200260200101516109999190612110565b815181106109aa576109a96123f3565b5b6020026020010151156109f2576040517f08c379a00000000000000000000000000000000000000000000000000000000081526004016109e9906124f8565b60405180910390fd5b6001826001858481518110610a0a57610a096123f3565b5b6020026020010151610a1c9190612110565b81518110610a2d57610a2c6123f3565b5b6020026020010190151590811515815250508080610a4a90612516565b9150506108e1565b508160025f3373ffffffffffffffffffffffffffffffffffffffff1673ffffffffffffffffffffffffffffffffffffffff1681526020019081526020015f206001019080519060200190610aa7929190611937565b505050565b60018181548110610abb575f80fd5b905f5260205f2090600402015f91509050805f018054610ada9061258a565b80601f0160208091040260200160405190810160405280929190818152602001828054610b069061258a565b8015610b515780601f10610b2857610100808354040283529160200191610b51565b820191905f5260205f20905b815481529060010190602001808311610b3457829003601f168201915b505050505090806001018054610b669061258a565b80601f0160208091040260200160405190810160405280929190818152602001828054610b929061258a565b8015610bdd5780601f10610bb457610100808354040283529160200191610bdd565b820191905f5260205f20905b815481529060010190602001808311610bc057829003601f168201915b505050505090806002018054610bf29061258a565b80601f0160208091040260200160405190810160405280929190818152602001828054610c1e9061258a565b8015610c695780601f10610c4057610100808354040283529160200191610c69565b820191905f5260205f20905b815481529060010190602001808311610c4c57829003601f168201915b5050505050908060030154905084565b5f8054906101000a900473ffffffffffffffffffffffffffffffffffffffff1673ffffffffffffffffffffffffffffffffffffffff163373ffffffffffffffffffffffffffffffffffffffff1614610d06576040517f08c379a0000000000000000000000000000000000000000000000000000000008152600401610cfd906122d3565b60405180910390fd5b603c81610d1391906122f1565b42610d1e9190612332565b60048190555050565b5f8054906101000a900473ffffffffffffffffffffffffffffffffffffffff1673ffffffffffffffffffffffffffffffffffffffff163373ffffffffffffffffffffffffffffffffffffffff1614610db4576040517f08c379a0000000000000000000000000000000000000000000000000000000008152600401610dab906122d3565b60405180910390fd5b600454421115610df9576040517f08c379a0000000000000000000000000000000000000000000000000000000008152600401610df090612604565b60405180910390fd5b8060078190555050565b5f8054906101000a900473ffffffffffffffffffffffffffffffffffffffff1673ffffffffffffffffffffffffffffffffffffffff163373ffffffffffffffffffffffffffffffffffffffff1614610e90576040517f08c379a0000000000000000000000000000000000000000000000000000000008152600401610e87906122d3565b60405180910390fd5b600160405180608001604052808581526020018481526020018381526020015f815250908060018154018082558091505060019003905f5260205f2090600402015f909190919091505f820151815f019081610eec91906127bf565b506020820151816001019081610f0291906127bf565b506040820151816002019081610f1891906127bf565b50606082015181600301555050505050565b60075481565b5f8054906101000a900473ffffffffffffffffffffffffffffffffffffffff1673ffffffffffffffffffffffffffffffffffffffff163373ffffffffffffffffffffffffffffffffffffffff1614610fbd576040517f08c379a0000000000000000000000000000000000000000000000000000000008152600401610fb4906122d3565b60405180910390fd5b600454421115611002576040517f08c379a0000000000000000000000000000000000000000000000000000000008152600401610ff990612604565b60405180910390fd5b600160025f8373ffffffffffffffffffffffffffffffffffffffff1673ffffffffffffffffffffffffffffffffffffffff1681526020019081526020015f205f015f6101000a81548160ff02191690831515021790555050565b600880546110699061258a565b80601f01602080910402602001604051908101604052809291908181526020018280546110959061258a565b80156110e05780601f106110b7576101008083540402835291602001916110e0565b820191905f5260205f20905b8154815290600101906020018083116110c357829003601f168201915b505050505081565b6002602052805f5260405f205f91509050805f015f9054906101000a900460ff1690805f0160019054906101000a900460ff1690805f0160029054906101000a900460ff16905083565b5f8054906101000a900473ffffffffffffffffffffffffffffffffffffffff1673ffffffffffffffffffffffffffffffffffffffff163373ffffffffffffffffffffffffffffffffffffffff16146111bf576040517f08c379a00000000000000000000000000000000000000000000000000000000081526004016111b6906122d3565b60405180910390fd5b6006544211611203576040517f08c379a00000000000000000000000000000000000000000000000000000000081526004016111fa906128fe565b60405180910390fd5b5f805f5b60018054905081101561127c578260018281548110611229576112286123f3565b5b905f5260205f2090600402016003015411156112695760018181548110611253576112526123f3565b5b905f5260205f2090600402016003015492508091505b808061127490612516565b915050611207565b5060018181548110611291576112906123f3565b5b905f5260205f2090600402015f01600890816112ad9190612943565b507f3c4708bb84dfbd1fea0b5c769b64b8b6b8d0a9ec48f7e5e0e4b4e79f4ac72a8960086040516112de9190612aa9565b60405180910390a15050565b60025f3373ffffffffffffffffffffffffffffffffffffffff1673ffffffffffffffffffffffffffffffffffffffff1681526020019081526020015f205f015f9054906101000a900460ff16611375576040517f08c379a000000000000000000000000000000000000000000000000000000000815260040161136c90612b39565b60405180910390fd5b60055442116113b9576040517f08c379a00000000000000000000000000000000000000000000000000000000081526004016113b090612bc7565b60405180910390fd5b6006544211156113fe576040517f08c379a00000000000000000000000000000000000000000000000000000000081526004016113f590612c2f565b60405180910390fd5b600180549050815114611446576040517f08c379a000000000000000000000000000000000000000000000000000000000815260040161143d906123d5565b60405180910390fd5b5f60018054905067ffffffffffffffff81111561146657611465611aa6565b5b6040519080825280602002602001820160405280156114945781602001602082028036833780820191505090505b5090505f5b825181101561160a575f8382815181106114b6576114b56123f3565b5b60200260200101511180156114ea57506001805490508382815181106114df576114de6123f3565b5b602002602001015111155b611529576040517f08c379a00000000000000000000000000000000000000000000000000000000081526004016115209061246a565b60405180910390fd5b81600184838151811061153f5761153e6123f3565b5b60200260200101516115519190612110565b81518110611562576115616123f3565b5b6020026020010151156115aa576040517f08c379a00000000000000000000000000000000000000000000000000000000081526004016115a1906124f8565b60405180910390fd5b60018260018584815181106115c2576115c16123f3565b5b60200260200101516115d49190612110565b815181106115e5576115e46123f3565b5b602002602001019015159081151581525050808061160290612516565b915050611499565b5060035f3373ffffffffffffffffffffffffffffffffffffffff1673ffffffffffffffffffffffffffffffffffffffff1681526020019081526020015f20548260405160200161165a9190612cfe565b60405160208183030381529060405280519060200120146116b0576040517f08c379a00000000000000000000000000000000000000000000000000000000081526004016116a790612d84565b60405180910390fd5b8160025f3373ffffffffffffffffffffffffffffffffffffffff1673ffffffffffffffffffffffffffffffffffffffff1681526020019081526020015f206001019080519060200190611704929190611937565b506001825f8151811061171a576117196123f3565b5b602002602001015181548110611733576117326123f3565b5b905f5260205f2090600402016003015f81548092919061175290612516565b91905055503373ffffffffffffffffffffffffffffffffffffffff167f8c27ce1ab46569731313ed2af1335f4b267023f9b7340a69a44c251e755391148360405161179d9190612dfe565b60405180910390a25050565b60065481565b606060065442116117f5576040517f08c379a00000000000000000000000000000000000000000000000000000000081526004016117ec90612e8e565b60405180910390fd5b600880546118029061258a565b80601f016020809104026020016040519081016040528092919081815260200182805461182e9061258a565b80156118795780601f1061185057610100808354040283529160200191611879565b820191905f5260205f20905b81548152906001019060200180831161185c57829003601f168201915b5050505050905090565b60055481565b5f8054906101000a900473ffffffffffffffffffffffffffffffffffffffff1673ffffffffffffffffffffffffffffffffffffffff163373ffffffffffffffffffffffffffffffffffffffff1614611916576040517f08c379a000000000000000000000000000000000000000000000000000000000815260040161190d906122d3565b60405180910390fd5b603c8161192391906122f1565b4261192e9190612332565b60068190555050565b828054828255905f5260205f20908101928215611971579160200282015b82811115611970578251825591602001919060010190611955565b5b50905061197e9190611982565b5090565b5b80821115611999575f815f905550600101611983565b5090565b5f604051905090565b5f80fd5b5f80fd5b5f819050919050565b6119c0816119ae565b81146119ca575f80fd5b50565b5f813590506119db816119b7565b92915050565b5f602082840312156119f6576119f56119a6565b5b5f611a03848285016119cd565b91505092915050565b5f819050919050565b611a1e81611a0c565b82525050565b5f602082019050611a375f830184611a15565b92915050565b611a4681611a0c565b8114611a50575f80fd5b50565b5f81359050611a6181611a3d565b92915050565b5f60208284031215611a7c57611a7b6119a6565b5b5f611a8984828501611a53565b91505092915050565b5f80fd5b5f601f19601f8301169050919050565b7f4e487b71000000000000000000000000000000000000000000000000000000005f52604160045260245ffd5b611adc82611a96565b810181811067ffffffffffffffff82111715611afb57611afa611aa6565b5b80604052505050565b5f611b0d61199d565b9050611b198282611ad3565b919050565b5f67ffffffffffffffff821115611b3857611b37611aa6565b5b602082029050602081019050919050565b5f80fd5b5f611b5f611b5a84611b1e565b611b04565b90508083825260208201905060208402830185811115611b8257611b81611b49565b5b835b81811015611bab5780611b978882611a53565b845260208401935050602081019050611b84565b5050509392505050565b5f82601f830112611bc957611bc8611a92565b5b8135611bd9848260208601611b4d565b91505092915050565b5f60208284031215611bf757611bf66119a6565b5b5f82013567ffffffffffffffff811115611c1457611c136119aa565b5b611c2084828501611bb5565b91505092915050565b5f81519050919050565b5f82825260208201905092915050565b5f5b83811015611c60578082015181840152602081019050611c45565b5f8484015250505050565b5f611c7582611c29565b611c7f8185611c33565b9350611c8f818560208601611c43565b611c9881611a96565b840191505092915050565b5f6080820190508181035f830152611cbb8187611c6b565b90508181036020830152611ccf8186611c6b565b90508181036040830152611ce38185611c6b565b9050611cf26060830184611a15565b95945050505050565b5f80fd5b5f67ffffffffffffffff821115611d1957611d18611aa6565b5b611d2282611a96565b9050602081019050919050565b828183375f83830152505050565b5f611d4f611d4a84611cff565b611b04565b905082815260208101848484011115611d6b57611d6a611cfb565b5b611d76848285611d2f565b509392505050565b5f82601f830112611d9257611d91611a92565b5b8135611da2848260208601611d3d565b91505092915050565b5f805f60608486031215611dc257611dc16119a6565b5b5f84013567ffffffffffffffff811115611ddf57611dde6119aa565b5b611deb86828701611d7e565b935050602084013567ffffffffffffffff811115611e0c57611e0b6119aa565b5b611e1886828701611d7e565b925050604084013567ffffffffffffffff811115611e3957611e386119aa565b5b611e4586828701611d7e565b9150509250925092565b5f73ffffffffffffffffffffffffffffffffffffffff82169050919050565b5f611e7882611e4f565b9050919050565b611e8881611e6e565b8114611e92575f80fd5b50565b5f81359050611ea381611e7f565b92915050565b5f60208284031215611ebe57611ebd6119a6565b5b5f611ecb84828501611e95565b91505092915050565b5f6020820190508181035f830152611eec8184611c6b565b905092915050565b5f8115159050919050565b611f0881611ef4565b82525050565b5f606082019050611f215f830186611eff565b611f2e6020830185611eff565b611f3b6040830184611eff565b949350505050565b7f4f6e6c79207265676973746572656420766f746572732063616e20766f7465005f82015250565b5f611f77601f83611c33565b9150611f8282611f43565b602082019050919050565b5f6020820190508181035f830152611fa481611f6b565b9050919050565b7f566f74696e6720686173206e6f742073746172746564207965740000000000005f82015250565b5f611fdf601a83611c33565b9150611fea82611fab565b602082019050919050565b5f6020820190508181035f83015261200c81611fd3565b9050919050565b7f566f74696e672068617320656e646564000000000000000000000000000000005f82015250565b5f612047601083611c33565b915061205282612013565b602082019050919050565b5f6020820190508181035f8301526120748161203b565b9050919050565b7f566f74696e6720746178206e6f742066756c6c792070616964000000000000005f82015250565b5f6120af601983611c33565b91506120ba8261207b565b602082019050919050565b5f6020820190508181035f8301526120dc816120a3565b9050919050565b7f4e487b71000000000000000000000000000000000000000000000000000000005f52601160045260245ffd5b5f61211a82611a0c565b915061212583611a0c565b925082820390508181111561213d5761213c6120e3565b5b92915050565b5f81549050919050565b5f82825260208201905092915050565b5f819050815f5260205f209050919050565b61217881611a0c565b82525050565b5f612189838361216f565b60208301905092915050565b5f815f1c9050919050565b5f819050919050565b5f6121bb6121b683612195565b6121a0565b9050919050565b5f6121cd82546121a9565b9050919050565b5f600182019050919050565b5f6121ea82612143565b6121f4818561214d565b93506121ff8361215d565b805f5b8381101561223657612213826121c2565b61221d888261217e565b9750612228836121d4565b925050600181019050612202565b5085935050505092915050565b5f6020820190508181035f83015261225b81846121e0565b905092915050565b7f4f6e6c7920456c656374696f6e20417574686f726974792063616e20706572665f8201527f6f726d207468697320616374696f6e0000000000000000000000000000000000602082015250565b5f6122bd602f83611c33565b91506122c882612263565b604082019050919050565b5f6020820190508181035f8301526122ea816122b1565b9050919050565b5f6122fb82611a0c565b915061230683611a0c565b925082820261231481611a0c565b9150828204841483151761232b5761232a6120e3565b5b5092915050565b5f61233c82611a0c565b915061234783611a0c565b925082820190508082111561235f5761235e6120e3565b5b92915050565b7f566f746520646f6573206e6f7420696e636c75646520616c6c2063616e6469645f8201527f6174657300000000000000000000000000000000000000000000000000000000602082015250565b5f6123bf602483611c33565b91506123ca82612365565b604082019050919050565b5f6020820190508181035f8301526123ec816123b3565b9050919050565b7f4e487b71000000000000000000000000000000000000000000000000000000005f52603260045260245ffd5b7f496e76616c69642063616e646964617465206e756d62657220696e20766f74655f82015250565b5f612454602083611c33565b915061245f82612420565b602082019050919050565b5f6020820190508181035f83015261248181612448565b9050919050565b7f4475706c69636174652063616e646964617465206e756d62657220696e20766f5f8201527f7465000000000000000000000000000000000000000000000000000000000000602082015250565b5f6124e2602283611c33565b91506124ed82612488565b604082019050919050565b5f6020820190508181035f83015261250f816124d6565b9050919050565b5f61252082611a0c565b91507fffffffffffffffffffffffffffffffffffffffffffffffffffffffffffffffff8203612552576125516120e3565b5b600182019050919050565b7f4e487b71000000000000000000000000000000000000000000000000000000005f52602260045260245ffd5b5f60028204905060018216806125a157607f821691505b6020821081036125b4576125b361255d565b5b50919050565b7f526567697374726174696f6e20646561646c696e6520686173207061737365645f82015250565b5f6125ee602083611c33565b91506125f9826125ba565b602082019050919050565b5f6020820190508181035f83015261261b816125e2565b9050919050565b5f819050815f5260205f209050919050565b5f6020601f8301049050919050565b5f82821b905092915050565b5f6008830261267e7fffffffffffffffffffffffffffffffffffffffffffffffffffffffffffffffff82612643565b6126888683612643565b95508019841693508086168417925050509392505050565b5f819050919050565b5f6126c36126be6126b984611a0c565b6126a0565b611a0c565b9050919050565b5f819050919050565b6126dc836126a9565b6126f06126e8826126ca565b84845461264f565b825550505050565b5f90565b6127046126f8565b61270f8184846126d3565b505050565b5b81811015612732576127275f826126fc565b600181019050612715565b5050565b601f8211156127775761274881612622565b61275184612634565b81016020851015612760578190505b61277461276c85612634565b830182612714565b50505b505050565b5f82821c905092915050565b5f6127975f198460080261277c565b1980831691505092915050565b5f6127af8383612788565b9150826002028217905092915050565b6127c882611c29565b67ffffffffffffffff8111156127e1576127e0611aa6565b5b6127eb825461258a565b6127f6828285612736565b5f60209050601f831160018114612827575f8415612815578287015190505b61281f85826127a4565b865550612886565b601f19841661283586612622565b5f5b8281101561285c57848901518255600182019150602085019450602081019050612837565b868310156128795784890151612875601f891682612788565b8355505b6001600288020188555050505b505050505050565b7f436f756e74696e6720706572696f6420686173206e6f742073746172746564205f8201527f7965740000000000000000000000000000000000000000000000000000000000602082015250565b5f6128e8602383611c33565b91506128f38261288e565b604082019050919050565b5f6020820190508181035f830152612915816128dc565b9050919050565b5f8154905061292a8161258a565b9050919050565b5f819050815f5260205f209050919050565b818103612951575050612a26565b61295a8261291c565b67ffffffffffffffff81111561297357612972611aa6565b5b61297d825461258a565b612988828285612736565b5f601f8311600181146129b5575f84156129a3578287015490505b6129ad85826127a4565b865550612a1f565b601f1984166129c387612931565b96506129ce86612622565b5f5b828110156129f5578489015482556001820191506001850194506020810190506129d0565b86831015612a125784890154612a0e601f891682612788565b8355505b6001600288020188555050505b5050505050505b565b5f8154612a348161258a565b612a3e8186611c33565b9450600182165f8114612a585760018114612a6e57612aa0565b60ff198316865281151560200286019350612aa0565b612a7785612622565b5f5b83811015612a9857815481890152600182019150602081019050612a79565b808801955050505b50505092915050565b5f6020820190508181035f830152612ac18184612a28565b905092915050565b7f4f6e6c79207265676973746572656420766f746572732063616e2072657665615f8201527f6c20746865697220766f74650000000000000000000000000000000000000000602082015250565b5f612b23602c83611c33565b9150612b2e82612ac9565b604082019050919050565b5f6020820190508181035f830152612b5081612b17565b9050919050565b7f52657665616c20706572696f6420686173206e6f7420737461727465642079655f8201527f7400000000000000000000000000000000000000000000000000000000000000602082015250565b5f612bb1602183611c33565b9150612bbc82612b57565b604082019050919050565b5f6020820190508181035f830152612bde81612ba5565b9050919050565b7f52657665616c20706572696f642068617320656e6465640000000000000000005f82015250565b5f612c19601783611c33565b9150612c2482612be5565b602082019050919050565b5f6020820190508181035f830152612c4681612c0d565b9050919050565b5f81519050919050565b5f81905092915050565b5f819050602082019050919050565b612c7981611a0c565b82525050565b5f612c8a8383612c70565b60208301905092915050565b5f602082019050919050565b5f612cac82612c4d565b612cb68185612c57565b9350612cc183612c61565b805f5b83811015612cf1578151612cd88882612c7f565b9750612ce383612c96565b925050600181019050612cc4565b5085935050505092915050565b5f612d098284612ca2565b915081905092915050565b7f566f7465206265696e672072657665616c656420646f6573206e6f74206d61745f8201527f636820746865206c61737420626c696e64656420766f74650000000000000000602082015250565b5f612d6e603883611c33565b9150612d7982612d14565b604082019050919050565b5f6020820190508181035f830152612d9b81612d62565b9050919050565b5f612dac82612c4d565b612db6818561214d565b9350612dc183612c61565b805f5b83811015612df1578151612dd8888261217e565b9750612de383612c96565b925050600181019050612dc4565b5085935050505092915050565b5f6020820190508181035f830152612e168184612da2565b905092915050565b7f436f756e74696e6720706572696f6420686173206e6f7420656e6465642079655f8201527f7400000000000000000000000000000000000000000000000000000000000000602082015250565b5f612e78602183611c33565b9150612e8382612e1e565b604082019050919050565b5f6020820190508181035f830152612ea581612e6c565b905091905056fea2646970667358221220eefc2ada243f54a3a9b430d1eb3a064d533f4037eec47670e40acd514f8bf44564736f6c63430008150033",
  "immutableReferences": {},
  "source": "// SPDX-License-Identifier: MIT\npragma solidity ^0.8.0;\n\ncontract Voting {\n    address election_authority;\n\n    struct Candidate {\n        string name;\n        string partyName;\n        string city;\n        uint256 voteCount;\n    }\n\n    struct Voter {\n        bool isRegistered;\n        bool hasVoted;\n        bool hasPaidTax;\n        uint256[] votePreference;\n    }\n\n    Candidate[] public candidates;\n    mapping(address => Voter) public voters;\n    mapping(address => bytes32) private votes;\n\n    uint256 public registerBy;\n    uint256 public voteBy;\n    uint256 public revealVoteBy;\n    uint256 public votingTax;\n    string public winnerCandidate;\n\n    event VoteCast(address indexed voter, uint256[] votePreference);\n    event VoteRevealed(address indexed voter, uint256[] votePreference);\n    event WinnerDetermined(string winner);\n\n    constructor(\n        string[] memory _candidateNames,\n        string[] memory _partyNames,\n        string[] memory _cities\n    ) {\n        require(\n            _candidateNames.length == _partyNames.length &&\n                _candidateNames.length == _cities.length,\n            \"Input lengths do not match\"\n        );\n\n        for (uint256 i = 0; i < _candidateNames.length; i++) {\n            candidates.push(\n                Candidate({\n                    name: _candidateNames[i],\n                    partyName: _partyNames[i],\n                    city: _cities[i],\n                    voteCount: 0\n                })\n            );\n        }\n\n        election_authority = msg.sender;\n    }\n\n    modifier onlyElection_authority() {\n        require(\n            msg.sender == election_authority,\n            \"Only Election Authority can perform this action\"\n        );\n        _;\n    }\n\n    function setRegisterBy(uint256 _timeInMinutes)\n        public\n        onlyElection_authority\n    {\n        //Enter time in mintues\n        registerBy = block.timestamp + _timeInMinutes * 1 minutes;\n    }\n\n    function setVoteBy(uint256 _timeInMinutes) public onlyElection_authority {\n        //Enter time in mintues\n        voteBy = block.timestamp + _timeInMinutes * 1 minutes;\n    }\n\n    function setRevealVoteBy(uint256 _timeInMinutes)\n        public\n        onlyElection_authority\n    {\n        //Enter time in mintues\n        revealVoteBy = block.timestamp + _timeInMinutes * 1 minutes;\n    }\n\n    function register_Voter(address _voter) public onlyElection_authority {\n        require(\n            block.timestamp <= registerBy,\n            \"Registration deadline has passed\"\n        );\n        voters[_voter].isRegistered = true;\n    }\n\n    function setVotingTax(uint256 _amount) public onlyElection_authority {\n        require(\n            block.timestamp <= registerBy,\n            \"Registration deadline has passed\"\n        );\n        votingTax = _amount;\n    }\n\n    function register_candidate(\n        string memory _name,\n        string memory _partyName,\n        string memory _city\n    ) public onlyElection_authority {\n        candidates.push(\n            Candidate({\n                name: _name,\n                partyName: _partyName,\n                city: _city,\n                voteCount: 0\n            })\n        );\n    }\n\n    function blindedVote(bytes32 _blindedVote) public payable {\n        require(\n            voters[msg.sender].isRegistered,\n            \"Only registered voters can vote\"\n        );\n        require(block.timestamp > registerBy, \"Voting has not started yet\");\n        require(block.timestamp <= voteBy, \"Voting has ended\");\n        require(msg.value >= votingTax, \"Voting tax not fully paid\");\n\n        // Refund excess amount\n        if (msg.value > votingTax) {\n            payable(msg.sender).transfer(msg.value - votingTax);\n        }\n\n        // Store the blinded vote\n        votes[msg.sender] = _blindedVote;\n\n        emit VoteCast(msg.sender, voters[msg.sender].votePreference);\n    }\n    function castVote(uint256[] memory _votePreference) public {\n        require(\n            voters[msg.sender].isRegistered,\n            \"Only registered voters can vote\"\n        );\n        require(block.timestamp > registerBy, \"Voting has not started yet\");\n        require(block.timestamp <= voteBy, \"Voting has ended\");\n        require(\n            _votePreference.length == candidates.length,\n            \"Vote does not include all candidates\"\n        );\n\n        // Check if all numbers from 1 to n are present\n        bool[] memory isPresent = new bool[](candidates.length);\n        for (uint256 i = 0; i < _votePreference.length; i++) {\n            require(\n                _votePreference[i] > 0 &&\n                    _votePreference[i] <= candidates.length,\n                \"Invalid candidate number in vote\"\n            );\n            require(\n                !isPresent[_votePreference[i] - 1],\n                \"Duplicate candidate number in vote\"\n            );\n            isPresent[_votePreference[i] - 1] = true;\n        }\n\n        voters[msg.sender].votePreference = _votePreference;\n    }\n\n    function unblindVote(uint256[] memory _votePreference) public {\n        require(\n            voters[msg.sender].isRegistered,\n            \"Only registered voters can reveal their vote\"\n        );\n        require(block.timestamp > voteBy, \"Reveal period has not started yet\");\n        require(block.timestamp <= revealVoteBy, \"Reveal period has ended\");\n        require(\n            _votePreference.length == candidates.length,\n            \"Vote does not include all candidates\"\n        );\n\n        // Check if all numbers from 1 to n are present\n        bool[] memory isPresent = new bool[](candidates.length);\n        for (uint256 i = 0; i < _votePreference.length; i++) {\n            require(\n                _votePreference[i] > 0 &&\n                    _votePreference[i] <= candidates.length,\n                \"Invalid candidate number in vote\"\n            );\n            require(\n                !isPresent[_votePreference[i] - 1],\n                \"Duplicate candidate number in vote\"\n            );\n            isPresent[_votePreference[i] - 1] = true;\n        }\n\n        // Check if the vote being revealed matches the last blinded vote\n        require(\n            keccak256(abi.encodePacked(_votePreference)) == votes[msg.sender],\n            \"Vote being revealed does not match the last blinded vote\"\n        );\n\n        // If all checks pass, update the voter's vote preference\n        voters[msg.sender].votePreference = _votePreference;\n\n        // Update the vote count of the preferred candidate\n        candidates[_votePreference[0]].voteCount++;\n\n        emit VoteRevealed(msg.sender, _votePreference);\n    }\n\n    function countVotes() public onlyElection_authority {\n        require(\n            block.timestamp > revealVoteBy,\n            \"Counting period has not started yet\"\n        );\n\n        // Initialize a variable to keep track of the winning candidate\n        uint256 winningVoteCount = 0;\n        uint256 winningCandidateIndex = 0;\n\n        // Iterate over all candidates\n        for (uint256 i = 0; i < candidates.length; i++) {\n            // Check if the current candidate has more votes than the current winner\n            if (candidates[i].voteCount > winningVoteCount) {\n                winningVoteCount = candidates[i].voteCount;\n                winningCandidateIndex = i;\n            }\n        }\n\n        // Set the winner candidate\n        winnerCandidate = candidates[winningCandidateIndex].name;\n\n        emit WinnerDetermined(winnerCandidate);\n    }\n\n    function winner() public view returns (string memory) {\n        require(\n            block.timestamp > revealVoteBy,\n            \"Counting period has not ended yet\"\n        );\n        return winnerCandidate;\n    }\n}",
  "sourcePath": "C:\\Users\\LEO\\Desktop\\Voting\\Project\\contracts\\Voting_Project.sol",
  "compiler": {
    "name": "solc",
    "version": "0.8.21+commit.d9974bed.Emscripten.clang"
  },
  "schemaVersion": "3.4.16",
  "updatedAt": "2024-03-23T14:58:46.531Z",
  "devdoc": {
    "kind": "dev",
    "methods": {},
    "version": 1
  },
  "userdoc": {
    "kind": "user",
    "methods": {},
    "version": 1
  }
}